S01E000043617073746F6E65202D2041746D65676133323850422E73726563DE
S11300000C945A000C946F000C946F000C946F00C5
S11300100C946F000C946F000C946F000C946F00A0
S11300200C946F000C946F000C946F000C946F0090
S11300300C946F000C946F000C946F000C946F0080
S11300400C946F000C946F000C946F000C946F0070
S11300500C946F000C946F000C946F000C946F0060
S11300600C946F000C946F000C946F000C946F0050
S11300700C946F000C946F000C946F000C946F0040
S11300800C946F000C946F000C946F000C946F0030
S11300900C946F000C946F000C946F000C946F0020
S11300A00C946F000C946F000C946F000C946F0010
S11300B00C946F0011241FBECFEFD8E0DEBFCDBF7C
S11300C014E0A0E0B1E0E2E0FCE002C005900D9293
S11300D0A031B107D9F70E9402040C94FF050C94D7
S11300E0000082E08093C0001092C50087E68093F0
S11300F0C40086E08093C20088E18093C100089523
S11301008091C0008823E4F78091C60008959091FF
S1130110C00095FFFCCF8093C60008950F931F93F2
S1130120CF938C01C0E003C00E948700CF5FF80129
S1130130EC0FF11D80818111F7CFCF911F910F91A9
S1130140089584B18C6284B983E58CBD1DBC089587
S11301508EBD0DB407FEFDCF08958EBD0DB407FE10
S1130160FDCF8EB5089582E08093B8008093B900E6
S1130170089584EA8093BC008091BC008823E4F74E
S11301808091B900887F8830D9F708958093BB00A7
S113019084E88093BC008091BC008823E4F78091BC
S11301A0B900887F8034D9F70895FC0184E88093EE
S11301B0BC009091BC009923E4F79091B900987F1A
S11301C09835D9F78091BB00808308958093BB0054
S11301D084E88093BC008091BC008823E4F780917C
S11301E0B900887F8831D9F708958093BB0084E8EB
S11301F08093BC008091BC008823E4F78091B9000F
S1130200887F8832D9F7089584E98093BC0080916F
S1130210BC0084FFFCCF089590E018C0292F30E083
S1130220F901EE0FFF1FE451FC4F4081841768F081
S1130230F901EE0FFF1FE451FC4F4181481728F0EC
S1130240F901E652FC4F808108959F5F923130F3AB
S113025080E0089590E012C0292F30E0F901EE0FFC
S1130260FF1FEC5BFC4F4081481307C0220F331F74
S1130270F901EC5BFC4F818108959F5F9B3460F32F
S113028080E00895CF93C0E015C00E94B90082E4D5
S11302900E94E60088E18C0F0E94F50080E00E9435
S11302A0F5000E9404018FEC97E00197F1F700C07C
S11302B00000CF5FC53048F3C0E015C00E94B9000C
S11302C082E40E94E60088E08C0F0E94F5008FEF24
S11302D00E94F5000E9404018FEC97E00197F1F76A
S11302E000C00000CF5FC53048F3C0E015C00E94D5
S11302F0B90080E40E94E60088E18C0F0E94F500BA
S113030080E00E94F5000E9404018FEC97E00197C1
S1130310F1F700C00000CF5FC53048F3C0E015C05E
S11303200E94B90080E40E94E60088E08C0F0E94DD
S1130330F5008FEF0E94F5000E9404018FEC97E016
S11303400197F1F700C00000CF5FC53048F3CF91AB
S113035008951F93CF93DF93C82F0E940C01182F89
S11303608C2F0E942A01D82F24EE2C0F91E0C93142
S113037008F090E081E02A3008F080E0892B79F0E1
S11303800E94B90082E40E94E60088E0810F0E9486
S1130390F5008D2F0E94F5000E9404010EC00E94FA
S11303A0B90080E40E94E60088E0810F0E94F50015
S11303B08D2F0E94F5000E940401DF91CF911F91BF
S11303C00895CF93DF93C82F0E940C01D82F24EEF9
S11303D02C0F91E0C93108F090E081E02A3008F058
S11303E080E0892B79F00E94B90082E40E94E60043
S11303F088E08D0F0E94F5008FEF0E94F5000E94A7
S113040004010EC00E94B90080E40E94E60088E066
S11304108D0F0E94F5008FEF0E94F5000E940401E9
S1130420DF91CF910895CF9320E030E006C0FC0126
S1130430E20FF31F10822F5F3F4F22333105BCF3CD
S1130440C0E013C08C2F0E94A90180E40E94A80080
S113045088E80E94A8008C2F0E94E1018FEC97E0AD
S11304600197F1F700C00000CF5FCB3458F3CF9170
S113047008950F931F93CF93DF938C01C62FD62F2C
S1130480D695623328F080E091E00E948E00B7C0D8
S1130490473409F43DC0423541F0423409F46CC09C
S11304A08BE191E00E948E00AAC08AE391E00E9451
S11304B08E002C2F30E0F801E20FF31F9081892F7A
S11304C0809584709370892B8083C0FF11C08470E1
S11304D011F0C0EF01C0C0E0020F131FF801319703
S11304E0808182FF02C08FE001C080E0C82B77C00A
S11304F0F801E20FF31F918192FF02C0C0EF01C027
S1130500C0E0847011F08FE001C080E0C82B67C0A8
S113051080E491E00E948E00D75E2C2F30E0F80139
S1130520E20FF31F9081892F809582709570892B3B
S11305308083C0FF11C081FF02C0C0EF01C0C0E0D2
S1130540020F131FF8013197808181FF02C08FE0F1
S113055001C080E0C82B43C0F801E20FF31F918172
S113056091FF02C0C0EF01C0C0E081FF02C08FE074
S113057001C080E0C82B33C088E491E00E948E0063
S1130580DE5C2C2F30E0F801E20FF31F808191E054
S1130590982791708670892B8083C0FF11C080FFDB
S11305A002C0C0EF01C0C0E0020F131FF801319771
S11305B0808180FF02C08FE001C080E0C82B0FC0A3
S11305C0F801E20FF31F918190FF02C0C0EF01C058
S11305D0C0E080FF02C08FE001C080E0C82B8D2FF7
S11305E00E94A90180E40E94A8008C2F0E94A80008
S11305F08D2F0E94E1018FE491E00E948E00DF9133
S1130600CF911F910F9108951F93CF93DF93D82F0C
S1130610142FC82FC695673471F0623539F06234EF
S113062081F08BE191E00E948E0021C08AE391E089
S11306300E948E000BC080E491E00E948E00C75E91
S113064005C088E491E00E948E00CE5CD0FF02C019
S1130650D0E101C0D0E08C2F0E94A9018D2F0E940F
S1130660A800812F0E94A8008C2F0E94E101DF9135
S1130670CF911F9108951F93CF93DF93182FEB0110
S11306800E94A9018FEC97E00197F1F700C00000E8
S11306900E94B90080E90E94E60080E00E94F50013
S11306A00E9404018FEC97E00197F1F700C000006D
S11306B00E94B90081E90E94C600CE010E94D500C3
S11306C00E9404018FEC97E00197F1F700C000004D
S11306D08881813069F7812F0E94E101DF91CF91F8
S11306E01F910895CF93C82F0E94A9018FEC97E022
S11306F00197F1F700C000000E94B90080E90E9450
S1130700E60081E00E94F50080E00E94F5000E946E
S113071004018FEC97E00197F1F700C000008C2FE3
S11307200E94E101CF910895CF93C82F0E94A9019F
S11307308FEC97E00197F1F700C000000E94B90028
S113074080E90E94E60082E10E94F50086E00E94B2
S1130750F5000E9404018FEC97E00197F1F700C0C7
S113076000008C2F0E94E101CF910895CF9390E077
S1130770029621E030E0A90102C0440F551F8A957A
S1130780E2F7CA01892B09F020E02BB981E00E942D
S1130790A80080E80E94AD00C82FC37080E00E94CA
S11307A0AD009FEF9BB92C2F30E0322F2227A901F7
S11307B0480F511DCA01CF910895CF93DF93D62FCF
S11307C095B1C1E09C2795B90E94A8008D2F0E9485
S11307D0A80085B1C827C5B9DF91CF910895AC01B0
S11307E020E080E00CC0880F982F990F990F890F93
S11307F0FA01E20FF11D9081890F80532F5F2617B4
S113080090F30895CF93DF93CDB7DEB7E5970FB696
S1130810F894DEBF0FBECDBF8E010F5F1F4F82E382
S1130820F80111928A95E9F78FE284B981E085B9DC
S113083087B98FEF88B98AB98BB90E94710080E6B5
S113084091E00E948E000E94A1008FE791E00E9437
S11308508E0085E891E00E948E000E94B3008FE72D
S113086091E00E948E0084EA91E00E948E000E9432
S113087042018FE791E00E948E0082EC91E00E9499
S11308808E00C8010E9413028FE791E00E948E003F
S113089088ED91E00E948E0010E01CC01230C9F077
S11308A0BE016D5C7F4F812F0E943B0386EF91E078
S11308B00E948E0080E3810F0E9487008FE792E000
S11308C00E948E00812F0E9472038BE092E00E94AE
S11308D08E001F5F183010F380E192E00E948E00BA
S11308E0C12CD12C84E192E00E948E000E948000F1
S11308F0182F0E948700103509F4CFC030F411344A
S113090009F4B3C01C3451F053C1163559F11835EC
S113091009F4A2C0123509F04BC155C08BE192E035
S11309200E948E000E9480008CAB0E9487000E946F
S113093080008DAB0E94870062E0CE01C4960E94C5
S1130940EF03082F89E292E00E948E000E9480004B
S1130950182F0E948700412F602FCE0101960E941C
S11309603902C0CF8AE392E00E948E000E94800088
S1130970182F0E948700153521F4F0E1CF0ED11C09
S11309800BC0143421F480E1C81AD10805C084E5F1
S113099092E00E948E00A6CF8AE692E00E948E002A
S11309A0C601807C93700024880F991F001C880F57
S11309B0991F001C892F902D6C2D660F660F806384
S11309C00E94DD038FCF8BE192E00E948E000E9493
S11309D080008CAB0E9487000E9480008DAB0E9437
S11309E0870062E0CE01C4960E94EF03B82E89E22C
S11309F092E00E948E000E948000F82E0E948700E0
S1130A0083E892E00E948E000E948000182F0E94CA
S1130A108700812F90E0C09714E6819F002D112458
S1130A200E948000182F0E948700812F90E0C097B9
S1130A30880F182F110F110F810F182F100F0E94FC
S1130A408000082F0E948700100F40ED410F6F2D8A
S1130A508B2D0E94040346CF84EA92E00E948E000C
S1130A60CE0101960E9413023DCF89E292E00E94DA
S1130A708E000E948000F82E0E94870000E010E0A3
S1130A8008C04F2D602FCE0101960E9439020F5FDE
S1130A901F4F02331105ACF325CF8AEB92E00E947D
S1130AA08E000E948000F82E0E94870000ED0F0D3A
S1130AB091E0083008F490E081E0023009F080E031
S1130AC0892B29F082EE92E00E948E000BCF802FBA
S1130AD00E94940310E0812C912C540109C0602FD2
S1130AE0802F0E94B603880E991EA11CB11C1F5FA3
S1130AF01031A8F324013501689413F876946794AF
S1130B00579447941694D1F78FEF8BB981E193E012
S1130B100E948E008F2D0E94870086E193E00E9440
S1130B208E00C501B40120E83EE340E050E00E949D
S1130B30DD0580E3820F0E948700C301B20128EE25
S1130B4033E040E050E00E94DD050F2EF4E68F2EE6
S1130B50912CA12CB12CF02DA50194010E94DD054E
S1130B6080E3820F0E948700C301B201A5019401B2
S1130B700E94DD050F2EFAE08F2E912CA12CB12CB2
S1130B80F02DA50194010E94DD0580E3820F0E94EF
S1130B908700C301B201A50194010E94DD0580E331
S1130BA0860F0E9487008AE193E00E948E009ACE0D
S1130BB089E293E00E948E0095CEA1E21A2EAA1B30
S1130BC0BB1BFD010DC0AA1FBB1FEE1FFF1FA217F9
S1130BD0B307E407F50720F0A21BB30BE40BF50BF6
S1130BE0661F771F881F991F1A9469F7609570957F
S1130BF0809590959B01AC01BD01CF010895F894B7
S1050C00FFCF20
S1130C020A0D4552523A204E4F5420412056414C2F
S1130C124944204C454420494421000A0D4552527E
S1130C223A204E4F5420412056414C4944204C45D1
S1130C324420434F4C4F555221000A0D5245440063
S1130C420A0D475245454E000A0D424C5545000ACD
S1130C520D4C45442075706461746564210D0A006D
S1130C620D0A436F6E6669677572696E6720535029
S1130C724920696E746572666163652E2E2E004486
S1130C824F4E4521000D0A436F6E6669677572699E
S1130C926E672054574920696E7465726661636594
S1130CA22E2E2E000D0A436F6E6669677572696E89
S1130CB26720494F20457870616E646572732E2EE9
S1130CC22E000D0A5475726E696E67204F66662097
S1130CD24C4544732E2E2E000A0D4F50544F474557
S1130CE24E455449432044455649434520524541C3
S1130CF24459210A0D000D0A554E4C4F434B494E9F
S1130D0247204C4D39313030302000444F4E45009D
S1130D120D0A0A000D0A636D643E000A0D53454C28
S1130D22454354204C45443E000A0D53454C45432B
S1130D325420434F4C4F55523E000A0D53656C6587
S1130D42637420446972656374696F6E2028552F39
S1130D5244293E000A0D4E6F7420612076616C694D
S1130D6264206F7074696F6E21000A0D53656E649E
S1130D72696E672044414320636F6D6D616E642E1A
S1130D822E2E000A0D5345542052455349535441C3
S1130D924E434520284E4E4E3B203030302D3235C6
S1130DA235293E000D0A526573657474696E6720B5
S1130DB2616C6C204C45447321000A0D53454C452B
S1130DC2435420504F54454E54494F535441542098
S1130DD228302D3729202D204558434550542032A0
S1130DE23E000A0D4E4F5420412056414C494420A6
S1130DF24944204F5220504F54454E54494F535466
S1130E024154204F5554204F46204F5244455221BD
S1130E12000A0D434800203A20000A0D54454D5063
S1130E222052454144210D0A000D0A4552523A20EE
S1130E324E4F5420412056414C4944204F50434F79
S1130E424445210000BF017F02FE03FD04FB05F7B8
S1130E5206EF07FB08FD09FE0A7F0BBF0CDF0DFB43
S1130E620EF70FEF10DF11BF127F13FE14FD15FBF7
S1130E7216F717EF18DF19DF1ABF1B7F1CFE1DFDC3
S1130E821EFB1FF720FD21FE227F23BF24DF25EF57
S1130E9226FD27FB28F729EF2ADF2BBF2C7F2DFE07
S1130EA22EFD2FFB30F731EF32EF33DF34BF357FC6
S1130EB236FE37FD38FB39FE3A7F3BBF3CDF3DEF60
S1130EC23EF73FFE40FD41FB42F743EF44DF45BF9F
S1130ED2467F47FE48FD49FB4AF700000001010135
S1130EE20102020202030303030404041C1F222559
S1130EF23F4620210D123235474A00011318363875
S1130F023A3E02060A0C262C39390709191B2D31DF
S9030000FC
