S01E000043617073746F6E65202D2041746D65676133323850422E73726563DE
S11300000C9472000C9487000C9487000C94870065
S11300100C9487000C9487000C9487000C94870040
S11300200C9487000C9487000C9487000C94870030
S11300300C9487000C9487000C9487000C94870020
S11300400C9487000C9487000C9487000C94870010
S11300500C9487000C9487000C9487000C94870000
S11300600C9487000C9487000C9487000C948700F0
S11300700C9487000C9487000C9487000C948700E0
S11300800C9487000C9487000C9487000C948700D0
S11300900C9487000C9487000C9487000C948700C0
S11300A00C9487000C9487000C9487000C948700B0
S11300B00C9487008605B007B0072E05B007B0077B
S11300C0B007B007B007B007B007F504B007B00732
S11300D0B007B007B0074C05B0078E05B007190686
S11300E0B007810511241FBECFEFD8E0DEBFCDBF1E
S11300F013E0A0E0B1E0ECE2F0E102C005900D9263
S1130100AC31B107D9F70E945B040C9414080C9429
S1130110000082E08093C0001092C50087E68093BF
S1130120C40086E08093C20088E18093C1000895F2
S11301308091C0008823E4F78091C60008959091CF
S1130140C00095FFFCCF8093C60008950F931F93C2
S1130150CF938C01C0E003C00E949F00CF5FF801E1
S1130160EC0FF11D80818111F7CFCF911F910F9179
S1130170089584B18C6284B983E58CBD1DBC089557
S11301808EBD0DB407FEFDCF08958EBD0DB407FEE0
S1130190FDCF8EB5089582E08093B8008093B900B6
S11301A0089584EA8093BC008091BC008823E4F71E
S11301B08091B900887F8830D9F708958093BB0077
S11301C084E88093BC008091BC008823E4F780918C
S11301D0B900887F8034D9F70895FC0184E88093BE
S11301E0BC009091BC009923E4F79091B900987FEA
S11301F09835D9F78091BB00808308958093BB0024
S113020084E88093BC008091BC008823E4F780914B
S1130210B900887F8831D9F708958093BB0084E8BA
S11302208093BC008091BC008823E4F78091B900DE
S1130230887F8832D9F7089584E98093BC0080913F
S1130240BC0084FFFCCF089590E018C0292F30E053
S1130250F901EE0FFF1FE950FD4F4081841768F04C
S1130260F901EE0FFF1FE950FD4F4181481728F0B7
S1130270F901EB51FD4F808108959F5F923130F376
S113028080E0089590E012C0292F30E0F901EE0FCC
S1130290FF1FE15BFD4F4081481307C0220F331F4E
S11302A0F901E15BFD4F818108959F5F9B3460F309
S11302B080E00895CF93C0E015C00E94D10082E48D
S11302C00E94FE0088E18C0F0E940D0180E00E94D4
S11302D00D010E941C018FEC97E00197F1F700C01B
S11302E00000CF5FC53048F3C0E015C00E94D100C4
S11302F082E40E94FE0088E08C0F0E940D018FEFC3
S11303000E940D010E941C018FEC97E00197F1F708
S113031000C00000CF5FC53048F3C0E015C00E94A4
S1130320D10080E40E94FE0088E18C0F0E940D0140
S113033080E00E940D010E941C018FEC97E0019760
S1130340F1F700C00000CF5FC53048F3C0E015C02E
S11303500E94D10080E40E94FE0088E08C0F0E947D
S11303600D018FEF0E940D010E941C018FEC97E09C
S11303700197F1F700C00000CF5FC53048F3CF917B
S113038008951F93CF93DF93C82F0E942401182F41
S11303908C2F0E944201D82F24EE2C0F91E0C931FA
S11303A008F090E081E02A3008F080E0892B79F0B1
S11303B00E94D10082E40E94FE0088E0810F0E9426
S11303C00D018D2F0E940D010E941C010EC00E9480
S11303D0D10080E40E94FE0088E0810F0E940D019C
S11303E08D2F0E940D010E941C01DF91CF911F915E
S11303F00895CF93DF93C82F0E942401D82F24EEB1
S11304002C0F91E0C93108F090E081E02A3008F027
S113041080E0892B79F00E94D10082E40E94FE00E2
S113042088E08D0F0E940D018FEF0E940D010E9444
S11304301C010EC00E94D10080E40E94FE0088E0EE
S11304408D0F0E940D018FEF0E940D010E941C016F
S1130450DF91CF910895CF9320E030E006C0FC01F6
S1130460E20FF31F10822F5F3F4F22333105BCF39D
S1130470C0E013C08C2F0E94C10180E40E94C00020
S113048088E80E94C0008C2F0E94F9018FEC97E04D
S11304900197F1F700C00000CF5FCB3458F3CF9140
S11304A00895CF93DF93AC01673431F0623541F0A6
S11304B0623421F080E005C082E003C081E001C025
S11304C084E020E030E008C0FA01E20FF31F9081DD
S11304D0982B90832F5F3F4F22333105ACF3673461
S11304E049F0623519F0623419F502C0D0E003C056
S11304F0D2E301C0D9E1CD2F13C08C2F0E94C101DA
S113050080E40E94C0008FEF0E94C0008C2F0E94E4
S1130510F9018FEC97E00197F1F700C00000CF5F7D
S11305202C2F30E08D2F90E04996281739072CF3B3
S1130530DF91CF910895CF93DF93C62FC695623391
S113054008F0A2C04734A9F1423521F0423409F041
S11305509BC05FC0462F50E0FC01E40FF51F3081C3
S1130560232F209524703370232B208360FF11C028
S1130570247011F0D0EF01C0D0E0840F951FFC016E
S11305803197808182FF02C08FE001C080E0D82BC8
S11305906FC0FC01E40FF51F818182FF02C0D0EF20
S11305A001C0D0E0247011F08FE001C080E0D82BAE
S11305B05FC0C75E462F50E0FC01E40FF51F308199
S11305C0232F209522703570232B208360FF11C0C8
S11305D021FF02C0D0EF01C0D0E0840F951FFC01C1
S11305E03197808181FF02C08FE001C080E0D82B69
S11305F03FC0FC01E40FF51F818181FF02C0D0EFF1
S113060001C0D0E021FF02C08FE001C080E0D82B00
S11306102FC0CE5C462F50E0FC01E40FF51F208173
S113062031E0322731702670232B208360FF11C004
S113063020FF02C0D0EF01C0D0E0840F951FFC0161
S11306403197808180FF02C08FE001C080E0D82B09
S11306500FC0FC01E40FF51F818180FF02C0D0EFC1
S113066001C0D0E020FF02C08FE001C080E0D82BA1
S11306708C2F0E94C10180E40E94C0008D2F0E9433
S1130680C0008C2F0E94F901DF91CF9108951F9330
S1130690CF93DF93C82FC695673429F0623531F0C4
S11306A06234B1F402C0C75E01C0CE5C80FF02C0F8
S11306B010E101C010E0D42F8C2F0E94C101812FC2
S11306C00E94C0008D2F0E94C0008C2F0E94F9014F
S11306D0DF91CF911F9108951F93CF93DF93182F2C
S11306E0EB010E94C1018FEC97E00197F1F700C084
S11306F000000E94D10080E90E94FE0080E00E9478
S11307000D010E941C018FEC97E00197F1F700C0E6
S113071000000E94D10081E90E94DE00CE010E9407
S1130720ED000E941C018FEC97E00197F1F700C0E7
S113073000008881813069F7812F0E94F901DF91DF
S1130740CF911F9108951F93CF93DF93C82F162F36
S1130750D42F0E94C1018FEC97E00197F1F700C0FC
S113076000000E94D10080E90E94FE00812F0E94B7
S11307700D018D2F0E940D010E941C018FEC97E04A
S11307800197F1F700C000008C2F0E94F901DF915E
S1130790CF911F910895CF93C82F0E94C1018FEC70
S11307A097E00197F1F700C000000E94D10080E9B2
S11307B00E94FE0081E00E940D0180E00E940D0174
S11307C00E941C018FEC97E00197F1F700C0000034
S11307D08C2F0E94F901CF910895CF93C82F0E94C6
S11307E0C1018FEC97E00197F1F700C000000E946F
S11307F0D10080E90E94FE0082E10E940D0186E0A2
S11308000E940D010E941C018FEC97E00197F1F703
S113081000C000008C2F0E94F901CF910895CF935E
S113082090E0029621E030E0A90102C0440F551F78
S11308308A95E2F7CA01892B09F020E02BB981E0FF
S11308400E94C00080E80E94C500C82FC37080E0E9
S11308500E94C5009FEF9BB92C2F30E0322F222736
S1130860A901480F511DCA01CF910895CF93DF9379
S1130870D62F95B1C1E09C2795B90E94C0008D2F59
S11308800E94C00085B1C827C5B9DF91CF910895F2
S1130890AC0120E080E00CC0880F982F990F990FCD
S11308A0890FFA01E20FF11D9081890F80532F5FA8
S11308B0261790F30895CF93DF93CDB7DEB7C159D0
S11308C0D1090FB6F894DEBF0FBECDBF8E010F5F06
S11308D01F4F82E3D8011D928A95E9F7FE01F39632
S11308E08CE5DF011D928A95E9F78FE284B981E0F6
S11308F085B987B98FEF88B98AB98BB90E94890005
S113090080E091E00E94A6000E94B9008FE191E08E
S11309100E94A60085E291E00E94A6000E94CB00FE
S11309208FE191E00E94A60084E491E00E94A60079
S11309300E945A018FE191E00E94A60082E691E0B4
S11309400E94A600C8010E942B028FE191E00E9440
S1130950A60010E02AC0123039F1143029F1EFE179
S1130960FEE43197F1F700C00000BE0161577F4FEC
S1130970812F0E946C0388E791E00E94A60080E327
S1130980810F0E949F008BE191E00E94A600812FBD
S11309900E94CB038DE891E00E94A6008FE19EE4C3
S11309A00197F1F700C000001F5F1830A0F282E940
S11309B091E00E94A60086E991E00E94A60084EBE3
S11309C091E00E94A6000E949800182F0E949F00A8
S11309D0812F90E0FC01E154F109E831F10508F0C0
S11309E0BFC2E65AFF4F0C94EB070E949800C05711
S11309F0DF4F8883C059D0400E949800CF56DF4F04
S1130A008883C159D04062E0CE0180579F4F0E9435
S1130A104804182F0E949800482F612FCE01019698
S1130A200E949B02CCCF0E94980090E0C0978E9DBC
S1130A3090018F9D300D9E9D300D1124C20ED31E4A
S1130A409701ADECBCEC0E94F1077C01F694E794AD
S1130A50F694E794F694E7941F5F09C010E00F2E14
S1130A60F8EEEF2EF3E0FF2EF02DC12CD12C143034
S1130A70D0F2C601807C93700024880F991F001C5B
S1130A80880F991F001C892F902D6C2D660F660FFF
S1130A9080630E94360493CF0E949800C057DF4FB2
S1130AA08883C059D0400E949800CF56DF4F888376
S1130AB0C159D04062E0CE0180579F4F0E94480444
S1130AC0F82E0E949800E82E0E94980090E0C097AB
S1130AD014E6819F002D11240E94980090E0C09795
S1130AE0880F182F110F110F810F182F100F0E944C
S1130AF09800810F40ED480F6E2D8F2D0E94470303
S1130B005ECFCE0101960E942B0259CF0E9498001D
S1130B10682FCE0101960E94510251CF8BEB91E0D8
S1130B200E94A6000E949800B82E0E949F0000ED2B
S1130B300B0D91E0083008F490E081E0023009F0F8
S1130B4080E0892B29F083EE91E00E94A60037CF44
S1130B50802F0E94ED0310E0C12CD12C760109C036
S1130B60602F80E00E940F04C80ED91EE11CF11C06
S1130B701F5F1031A8F326013701689413F87694A7
S1130B806794579447941694D1F78FEF8BB982E109
S1130B9092E00E94A6008B2D0E949F0087E192E0C4
S1130BA00E94A600C701B60120E83EE340E050E001
S1130BB00E94C90780E3820F0E949F00C301B20113
S1130BC028EE33E040E050E00E94C9070F2EF4E61F
S1130BD0CF2ED12CE12CF12CF02DA70196010E94EF
S1130BE0C90780E3820F0E949F00C301B201A701DD
S1130BF096010E94C9070F2EFAE0CF2ED12CE12CCA
S1130C00F12CF02DA70196010E94C90780E3820F01
S1130C100E949F00C301B201A70196010E94C90767
S1130C2080E3860F0E949F008BE192E00E94A60061
S1130C30C6CE42E062E180E00E94A3039FE7A8E3FE
S1130C40B1E09150A040B040E1F700C000004FE196
S1130C5060E180E00E94A303EFE7F8E321E0E150C4
S1130C60F0402040E1F700C0000040E261E180E094
S1130C700E94A3033FE788E391E031508040904015
S1130C80E1F700C0000043E062E180E00E94A303BA
S1130C90AFE7B8E3E1E0A150B040E040E1F700C0C5
S1130CA00000F12CB12C21C040E24F0D61E180E045
S1130CB00E94A303FFEF20E732E0F15020403040D0
S1130CC0E1F700C000000B2D10E060E080E00E941E
S1130CD00F04000F111FE1E0F0E0EC0FFD1FE00F27
S1130CE0F11F93AB82ABB394F3948BE08F15E0F6D2
S1130CF00F2EFBE0FF2EF02D21C040E24F0D61E1ED
S1130D0080E00E94A3039FEFA0E7B2E09150A040CF
S1130D10B040E1F700C000000B2D10E060E080E07F
S1130D200E940F04000F111FE1E0F0E0EC0FFD1F23
S1130D30E00FF11F93AB82ABB394FA94F110DDCFC3
S1130D4021C040E34F0D61E180E00E94A303EFEF77
S1130D50F0E722E0E150F0402040E1F700C000005D
S1130D600B2D10E060E080E00E940F04000F111FC3
S1130D70E1E0F0E0EC0FFD1FE00FF11F93AB82AB5D
S1130D80B394F3943BE03F15E0F60F2EFBE0FF2E07
S1130D90F02D21C040E34F0D61E180E00E94A303E8
S1130DA08FEF90E7A2E081509040A040E1F700C0AF
S1130DB000000B2D10E060E080E00E940F04000FA3
S1130DC0111FE1E0F0E0EC0FFD1FE00FF11F93AB0A
S1130DD082ABB394FA94F110DDCF00E0BDC08AE297
S1130DE092E00E94A600E02EF12C0F2EF8EECF2EFA
S1130DF0F3E0DF2EF02DC701B6010E94B50764E6CB
S1130E0070E00E94B50780E3860F0E949F0089E28C
S1130E10089F812D112482958F700F2EF4E6AF2E3A
S1130E20F02DB02F8A9DB01911241DECB19F812D96
S1130E301124869586958695805D0E949F00019F6A
S1130E40112D1124169516951695110F812F880FC3
S1130E50880F180F802F811B805D0E949F0087E1FF
S1130E6092E00E94A600EE0CFF1CE1E0F0E0EC0F23
S1130E70FD1FEE0DFF1DE2A8F3A8370176946794D9
S1130E8076946794769467949301A5ECB0E20E94FB
S1130E90F1074C019694879496948794969487943A
S1130EA09694879480E3880D0E949F008C9CC001D7
S1130EB08D9C900D9C9C900D11249701281B390B3F
S1130EC03695279536952795ABE7B4E10E94F1074F
S1130ED096958795805D0E949F009701369527958A
S1130EE036952795ABE7B4E10E94F1079C0136954E
S1130EF02795A29EC001A39E900D11249701281B43
S1130F00390BADECBCEC0E94F1079695879596954C
S1130F10879596958795805D0E949F009701ADEC1B
S1130F20BCEC0E94F10796958795969587959695C2
S1130F3087959C01220F331F880F991F880F991FD3
S1130F40880F991F820F931FF701E81BF90BCF013C
S1130F50805D0E949F000F5F0B1508F440CF2FCDDA
S1130F6084E392E00E94A6002ACD97FB072E16F494
S1130F70009407D077FD09D00E94000807FC05D033
S1130F803EF4909581959F4F0895709561957F4F9C
S1130F900895A1E21A2EAA1BBB1BFD010DC0AA1FB6
S1130FA0BB1FEE1FFF1FA217B307E407F50720F0CE
S1130FB0A21BB30BE40BF50B661F771F881F991F49
S1130FC01A9469F760957095809590959B01AC0192
S1130FD0BD01CF010895EE0FFF1F0590F491E02DA0
S1130FE00994A29FB001B39FC001A39F700D811DFE
S1130FF01124911DB29F700D811D1124911D08951E
S1131000AA1BBB1B51E107C0AA1FBB1FA617B7072A
S113101010F0A61BB70B881F991F5A95A9F7809546
S10F10209095BC01CD010895F894FFCF19
S113102C0D0A436F6E6669677572696E672053505B
S113103C4920696E746572666163652E2E2E0044B8
S113104C4F4E4521000D0A436F6E666967757269D0
S113105C6E672054574920696E74657266616365C6
S113106C2E2E2E000D0A436F6E6669677572696EBB
S113107C6720494F20457870616E646572732E2E1B
S113108C2E000D0A5475726E696E67204F666620C9
S113109C4C4544732E2E2E000D0A554E4C4F434B8B
S11310AC494E47204C4D39313030302000444F4E9E
S11310BC45000D0A0A000A0D4F50544F47454E4542
S11310CC54494320444556494345205245414459CB
S11310DC210A0D000D0A636D643E000A0D53454C44
S11310EC45435420504F54454E54494F5354415446
S11310FC2028302D3729202D204558434550542085
S113110C323E000A0D4E4F5420412056414C494466
S113111C204944204F5220504F54454E54494F536C
S113112C544154204F5554204F46204F524445525D
S113113C21000A0D434800203A20000A0D54454D65
S113114C502052454144210D0A000A0D5245535575
S113115C4C5420000D0A4552523A204E4F54204113
S113116C2056414C4944204F50434F4445210000E4
S113117CBF017F02FE03FD04FB05F706EF07FB0826
S113118CFD09FE0A7F0BBF0CDF0DFB0EF70FEF10F2
S113119CDF11BF127F13FE14FD15FB16F717EF18A2
S11311ACDF19DF1ABF1B7F1CFE1DFD1EFB1FF72062
S11311BCFD21FE227F23BF24DF25EF26FD27FB28FC
S11311CCF729EF2ADF2BBF2C7F2DFE2EFD2FFB30B2
S11311DCF731EF32EF33DF34BF357F36FE37FD386E
S11311ECFB39FE3A7F3BBF3CDF3DEF3EF73FFE4011
S11311FCFD41FB42F743EF44DF45BF467F47FE48C2
S113120CFD49FB4AF7000000010101010202020240
S113121C030303030404041C1F22253F4620210D51
S113122C123235474A0001131836383A3E02060A80
S10F123C0C262C39390709191B2D310030
S9030000FC
